:100000000C942A000C9434000C9434000C943400AA
:100010000C9434000C9434000C9434000C94340090
:100020000C9434000C9434000C9434000C94340080
:100030000C9434000C9434000C9434000C94340070
:100040000C9434000C9434000C9434000C94340060
:100050000C94340011241FBECFE5D8E0DEBFCDBF25
:100060000E9480000C9424010C9400008FE781BB57
:1000700012BA089512BA08958430910561F185305D
:1000800091057CF48130910501F1823091051CF4D9
:10009000892BC9F0089582309105C9F0039741F585
:1000A00018C087309105E9F08830910534F4853027
:1000B000910599F00697E1F412C08830910599F006
:1000C0000997B1F413C08FE30FC086E00DC08BE534
:1000D0000BC08FE409C086E607C08DE605C08DE73A
:1000E00003C087E001C08FE782BB08958FE682BB23
:1000F0000895369A3699FECF24B135B1C9010895D5
:100100008F929F92AF92BF92CF92DF92EF92FF9227
:100110000F931F93CF93DF933E9A87B1876087B980
:10012000379A86B1836086B9D09A84B38F6084BBD6
:100130008FE781BB12BA28E1822E2CEF922EC12CC0
:100140009AEFD92E8CE9A82E8FEFB82E369A3699D1
:10015000FECFC4B1D5B182E0C030D80714F4D89A2C
:1001600001C0D898CE0168EE73E00E94FD009B01AB
:10017000689D7001699DF00C789DF00C1124EC0EC7
:10018000FD1EC70164E670E00E94FD008B01AB9A82
:10019000C9010E943C00C6010197F1F712BAAB9861
:1001A000AA9AC8010E943C00C6010197F1F712BA51
:1001B000AA98A99A0A9DC0010B9D900D1A9D900DB9
:1001C00011248E0D9F1D6AE070E00E94FD00CB019E
:1001D0000E943C00C6010197F1F712BAA998A89AAB
:1001E000CE016AE070E00E94FD000E943C00C60162
:1001F0000197F1F712BAA898A9CF97FB092E072605
:100200000AD077FD04D00CD006D000201AF47095E7
:1002100061957F4F0895F6F7909581959F4F0895CA
:10022000AA1BBB1B51E107C0AA1FBB1FA617B7071C
:1002300010F0A61BB70B881F991F5A95A9F7809538
:0C0240009095BC01CD010895F894FFCF0B
:00000001FF
