:100000000C942A000C943F000C943F000C943F0089
:100010000C943F000C943F000C943F000C943F0064
:100020000C943F000C943F000C943F000C94410052
:100030000C943F000C943F000C943F000C943F0044
:100040000C943F000C943F000C943F000C943F0034
:100050000C943F0011241FBECFE5D8E0DEBFCDBF1A
:1000600010E0A0E6B0E0E8EEF0E002C005900D92EE
:10007000A236B107D9F70E9467000C9472000C9465
:1000800000001F920F920FB60F9211248F939F932F
:1000900085E082BF8091600090916100019790930C
:1000A000610080936000019659F4989B02C0A89863
:1000B00001C0A89A8DE790E0909361008093600062
:1000C0009F918F910F900FBE0F901F901895A09A3F
:1000D000789483B7846083BF85E082BF89B78160ED
:0800E00089BFFFCFF894FFCFA8
:0200E8007D0099
:00000001FF
