:100000000C942A000C943F000C943F000C943F0089
:100010000C943F000C943F000C943F000C943F0064
:100020000C943F000C943F000C943F000C943F0054
:100030000C943F000C943F000C943F000C943F0044
:100040000C943F000C943F000C943F000C943F0034
:100050000C943F0011241FBECFE5D8E0DEBFCDBF1A
:1000600010E0A0E6B0E0E4E1FCE002C005900D92F3
:10007000A03AB107D9F70E944F010C9408060C94DE
:100080000000DF93CF9300D000D0CDB7DEB7198248
:100090001A821B821C829C01442737FD4095542FF5
:1000A00060ED77E00EC0CB010197F1F789819A816D
:1000B000AB81BC810196A11DB11D89839A83AB835D
:1000C000BC8389819A81AB81BC8182179307A40785
:1000D000B50748F30F900F900F900F90CF91DF91DD
:1000E0000895DF93CF9300D000D0CDB7DEB719824B
:1000F0001A821B821C829C01442737FD4095542F95
:1001000062E00EC0862F8A95F1F789819A81AB81D2
:10011000BC810196A11DB11D89839A83AB83BC83E9
:1001200089819A81AB81BC8182179307A407B507A7
:1001300048F30F900F900F900F90CF91DF9108959B
:10014000A898A998AA9A88E382BBAA9820EF30E0E1
:10015000C9010197F1F7AA9A8EE082BBAA98C9015A
:100160000197F1F7AA9A86E082BBAA98C901019784
:10017000F1F70895DF93CF9300D000D0CDB7DEB76D
:10018000A898A998AA9A81E082BBAA9819821A8293
:100190001B821C8220ED37E00EC0C9010197F1F7E8
:1001A00089819A81AB81BC810196A11DB11D898392
:1001B0009A83AB83BC8389819A81AB81BC81883768
:1001C0009105A105B10548F30F900F900F900F9086
:1001D000CF91DF910895A89AA998AA9A82BBAA986C
:1001E00080EF90E00197F1F70895DF93CF9300D06F
:1001F00000D0CDB7DEB79C01A898A998AA9A198219
:100200001A821B821C8240ED57E00EC0CA01019782
:10021000F1F789819A81AB81BC810196A11DB11D45
:1002200089839A83AB83BC8389819A81AB81BC81AA
:100230000097A105B10551F361502F5F3F4F86E054
:10024000220F331F8A95E1F7620F62BB19821A826F
:100250001B821C8220ED37E00EC0C9010197F1F727
:1002600089819A81AB81BC810196A11DB11D8983D1
:100270009A83AB83BC8389819A81AB81BC810097CF
:10028000A105B10551F3AA9880EF90E00197F1F72D
:100290000F900F900F900F90CF91DF9108952F92B4
:1002A0003F924F925F926F927F928F929F92AF9206
:1002B000BF92CF92DF92EF92FF920F931F93DF9343
:1002C000CF93CDB7DEB7E6970FB6F894DEBF0FBE7B
:1002D000CDBFDE011596EEE8F0E080E101900D92D1
:1002E0008150E1F71ABA8FEF81BB12BA84BBAB9A87
:1002F00017BA8FE088BB80E487B980EE86B980EDBD
:1003000097E028EC30E0F9013197F1F70197D9F740
:100310000E94A0000E94BA000E94BA008E010B5FEA
:100320001F4FB5E1EB2EF12CEC0EFD1ED8018D9187
:100330008D0190E00E94EB000E151F05B9F7A8E5AE
:100340006A2EA2E07A2EF0E5AF2EB12C88249924F3
:10035000E5E14E2E512C4C0E5D1EFE01B596FEAB16
:10036000EDAB70ED272E77E0372EB09905C064EF26
:10037000662E61E0762E12C0B19905C050E9652E57
:1003800051E0752E0BC0B29904C048E2A42EB12CE6
:1003900005C0B39903C034E6A32EB12C64B175B186
:1003A00080E090E028EE33E040E050E00E94AD02B3
:1003B0002FEF33E040E050E00E94DF02890173013B
:1003C000E21AF30A8114910479F0C50162E070E049
:1003D0000E94CC02709561957F4FE616F7065CF49B
:1003E000AB9A882499240AC0C501959587958E15E6
:1003F0009F0524F4AB9891E0892E912C81E090E048
:1004000061E070E00E94F5008DB79EB70A970FB6C5
:10041000F8949EBF0FBE8DBFEDB7FEB73196ADB756
:10042000BEB712965C924E92119780E690E093834D
:100430008283C3016AE070E00E94CC02758364830A
:10044000C8016AE070E00E94CC0277836683C8012D
:100450006AE070E00E94CC02918780870E9430039E
:1004600062018201ADB7BEB71A960FB6F894BEBF4F
:100470000FBEADBFF80181918F0190E00E94EB00AB
:100480008DA99EA908171907A9F782E090E061E0FD
:1004900070E00E94F500F7FE05C0882799278E19A5
:1004A0009F0901C0C7016AE070E00E94CC02382FAA
:1004B000292FADB7BEB71A970FB6F894BEBF0FBEBF
:1004C000ADBFEDB7FEB7319612965C924E92119782
:1004D00087E790E093838283C5016AE070E00E9421
:1004E000CC0275836483C7016AE070E00E94CC028D
:1004F00077836683308721870E943003ADB7BEB70C
:100500001A960FB6F894BEBF0FBEADBFF60181912B
:100510006F0190E00E94EB00C016D106B9F7198276
:100520001A821B821C820EC0C1010197F1F78981DA
:100530009A81AB81BC810196A11DB11D89839A83EB
:10054000AB83BC8389819A81AB81BC818436910560
:10055000A105B10508F009CFE7CF629FD001739FD5
:10056000F001829FE00DF11D649FE00DF11D929F4F
:10057000F00D839FF00D749FF00D659FF00D99278E
:10058000729FB00DE11DF91F639FB00DE11DF91FB2
:10059000BD01CF011124089597FB092E07260AD02B
:1005A00077FD04D027D006D000201AF4709561950D
:1005B0007F4F0895F6F7909581959F4F089597FB8B
:1005C000092E05260ED057FD04D028D00AD0001CD5
:1005D00038F450954095309521953F4F4F4F5F4FE0
:1005E0000895F6F790958095709561957F4F8F4FA0
:1005F0009F4F0895AA1BBB1B51E107C0AA1FBB1F39
:10060000A617B70710F0A61BB70B881F991F5A959E
:10061000A9F780959095BC01CD010895A1E21A2E0D
:10062000AA1BBB1BFD010DC0AA1FBB1FEE1FFF1F96
:10063000A217B307E407F50720F0A21BB30BE40BE6
:10064000F50B661F771F881F991F1A9469F760952D
:100650007095809590959B01AC01BD01CF010895E7
:10066000AEE0B0E0E6E3F3E00C94DF050D891E890F
:1006700086E08C831A8309838FEF9FE79E838D83A7
:100680009E01275E3F4FCE0101966F89788DA901AB
:100690000E9454032F813885020F131FF801108226
:1006A0002E96E4E00C94FB05ABE0B0E0EAE5F3E065
:1006B0000C94D1053C012B015A01FC0117821682D2
:1006C000838181FD03C06FEF7FEFC6C19AE0892E61
:1006D0001E010894211C311CF3012381F20123FD2A
:1006E000859123FF81912F01882309F4B2C18532BE
:1006F00039F423FD859123FF81912F01853229F45F
:1007000090E0B3010E944705E7CF982FFF24EE2425
:100710009924FFE1FF15D0F09B3269F09C3228F458
:10072000903259F0933291F40EC09D3249F09033DB
:1007300069F441E024C052E0F52A84E0F82A28C098
:1007400098E0F92A25C0E0E1FE2A22C0F7FC29C082
:10075000892F80538A3070F4F6FE05C0989C902C47
:100760001124980E15C0E89CE02C1124E80EF0E24C
:10077000FF2A0EC09E3229F4F6FC6BC140E4F42A35
:1007800007C09C3619F450E8F52A02C0983649F49F
:10079000F20123FD959123FF91912F01992309F0F7
:1007A000B8CF892F8554833018F08052833038F4C5
:1007B00044E050E0A40EB51E5FE359830FC09336AA
:1007C00031F0933779F0933509F056C020C0F50128
:1007D0008081898342E050E0A40EB51E610101E0F2
:1007E00010E012C0F501C080D180F6FC03C06FEFAD
:1007F0007FEF02C0692D70E042E050E0A40EB51E0C
:10080000C6010E943C058C015FE7F52214C0F5018A
:10081000C080D180F6FC03C06FEF7FEF02C0692D6E
:1008200070E042E050E0A40EB51EC6010E94310502
:100830008C0150E8F52AF3FE07C01AC080E290E070
:10084000B3010E944705EA948E2D90E0081719071E
:10085000A8F30EC0F601F7FC8591F7FE81916F01B8
:1008600090E0B3010E944705E110EA940150104066
:100870000115110579F7EAC0943611F0993669F53A
:10088000F7FE08C0F501208131814281538184E067
:1008900090E00AC0F501808191819C01442737FDD9
:1008A0004095542F82E090E0A80EB91E9FE6F922F1
:1008B00057FF09C050954095309521953F4F4F4FB8
:1008C0005F4FE0E8FE2ACA01B901A1012AE030E049
:1008D0000E947305D82ED21840C0953729F41F2DD9
:1008E0001F7E2AE030E01DC01F2D197F9F3661F06A
:1008F000903720F4983509F0ACC00FC0903739F02C
:10090000983709F0A6C004C028E030E00AC01061A2
:1009100014FD146020E130E004C014FD166020E1F5
:1009200032E017FF08C0F5016081718182819381F7
:1009300044E050E008C0F50180819181BC0180E075
:1009400090E042E050E0A40EB51EA1010E947305A4
:10095000D82ED2188FE7F82EF122F6FE0BC05EEFEC
:10096000F522D91438F4F4FE07C0F2FC05C08FEE6E
:10097000F82202C01D2D01C0192DF4FE0DC0FE018C
:10098000ED0DF11D8081803319F499EEF92208C034
:100990001F5FF2FE05C003C08F2D867809F01F5F30
:1009A0000F2DF3FC14C0F0FE0FC01E1510F09D2C8F
:1009B0000BC09D2C9E0C911A1E2D06C080E290E06B
:1009C000B3010E9447051F5F1E15C0F304C01E152A
:1009D00010F4E11A01C0EE2404FF0FC080E390E0A0
:1009E000B3010E94470502FF1DC001FD03C088E757
:1009F00090E00EC088E590E00BC0802F867891F0E3
:100A000001FF02C08BE201C080E2F7FC8DE290E0C2
:100A1000B3010E94470506C080E390E0B3010E9445
:100A200047059A94D914C0F3DA94F101ED0DF11D44
:100A3000808190E0B3010E944705DD20A9F706C040
:100A400080E290E0B3010E944705EA94EE20C1F7EE
:100A500043CEF30166817781CB012B96E2E10C94C2
:100A6000ED05FC010590615070400110D8F78095AC
:100A700090958E0F9F1F0895FC016150704001906A
:100A80000110D8F7809590958E0F9F1F08950F93B2
:100A90001F93CF93DF938C01EB018B8181FF1BC0F0
:100AA00082FF0DC02E813F818C819D8128173907DF
:100AB00064F4E881F9810193F983E88306C0E8854D
:100AC000F985802F0995892B31F48E819F810196BC
:100AD0009F838E8302C00FEF1FEFC801DF91CF917C
:100AE0001F910F910895FA01AA27283051F1203162
:100AF00081F1E8946F936E7F6E5F7F4F8F4F9F4FB2
:100B0000AF4FB1E03ED0B4E03CD0670F781F891FF3
:100B10009A1FA11D680F791F8A1F911DA11D6A0FC1
:100B2000711D811D911DA11D20D009F468943F9174
:100B30002AE0269F11243019305D3193DEF6CF0173
:100B40000895462F4770405D4193B3E00FD0C9F739
:100B5000F6CF462F4F70405D4A3318F0495D31FDA6
:100B60004052419302D0A9F7EACFB4E0A6959795F9
:100B7000879577956795BA95C9F7009761057105CF
:100B800008959B01AC010A2E069457954795379519
:100B90002795BA95C9F7620F731F841F951FA01D73
:100BA00008952F923F924F925F926F927F928F9211
:100BB0009F92AF92BF92CF92DF92EF92FF920F93EC
:100BC0001F93CF93DF93CDB7DEB7CA1BDB0B0FB6F6
:100BD000F894DEBF0FBECDBF09942A8839884888B3
:100BE0005F846E847D848C849B84AA84B984C88449
:100BF000DF80EE80FD800C811B81AA81B981CE0F40
:100C0000D11D0FB6F894DEBF0FBECDBFED01089524
:040C1000F894FFCF86
:100C140053503D2530326425252050563D25303330
:100C2400642E2564252500483D2530326425252081
:100C340020453D252B3034642E2564252500777707
:100C4400772D3E206172652E6E65742E706C0000E7
:00000001FF
