
main.elf:     file format elf32-avr

Sections:
Idx Name          Size      VMA       LMA       File off  Algn
  0 .text         00000098  00000000  00000000  00000054  2**1
                  CONTENTS, ALLOC, LOAD, READONLY, CODE
  1 .debug_aranges 00000020  00000000  00000000  000000ec  2**0
                  CONTENTS, READONLY, DEBUGGING
  2 .debug_pubnames 0000001b  00000000  00000000  0000010c  2**0
                  CONTENTS, READONLY, DEBUGGING
  3 .debug_info   00000157  00000000  00000000  00000127  2**0
                  CONTENTS, READONLY, DEBUGGING
  4 .debug_abbrev 000000d9  00000000  00000000  0000027e  2**0
                  CONTENTS, READONLY, DEBUGGING
  5 .debug_line   00000145  00000000  00000000  00000357  2**0
                  CONTENTS, READONLY, DEBUGGING
  6 .debug_frame  00000020  00000000  00000000  0000049c  2**2
                  CONTENTS, READONLY, DEBUGGING
  7 .debug_str    000000f2  00000000  00000000  000004bc  2**0
                  CONTENTS, READONLY, DEBUGGING
  8 .debug_loc    00000080  00000000  00000000  000005ae  2**0
                  CONTENTS, READONLY, DEBUGGING
  9 .debug_ranges 00000048  00000000  00000000  0000062e  2**0
                  CONTENTS, READONLY, DEBUGGING

Disassembly of section .text:

00000000 <__vectors>:
   0:	0c 94 2a 00 	jmp	0x54	; 0x54 <__ctors_end>
   4:	0c 94 34 00 	jmp	0x68	; 0x68 <__bad_interrupt>
   8:	0c 94 34 00 	jmp	0x68	; 0x68 <__bad_interrupt>
   c:	0c 94 34 00 	jmp	0x68	; 0x68 <__bad_interrupt>
  10:	0c 94 34 00 	jmp	0x68	; 0x68 <__bad_interrupt>
  14:	0c 94 34 00 	jmp	0x68	; 0x68 <__bad_interrupt>
  18:	0c 94 34 00 	jmp	0x68	; 0x68 <__bad_interrupt>
  1c:	0c 94 34 00 	jmp	0x68	; 0x68 <__bad_interrupt>
  20:	0c 94 34 00 	jmp	0x68	; 0x68 <__bad_interrupt>
  24:	0c 94 34 00 	jmp	0x68	; 0x68 <__bad_interrupt>
  28:	0c 94 34 00 	jmp	0x68	; 0x68 <__bad_interrupt>
  2c:	0c 94 34 00 	jmp	0x68	; 0x68 <__bad_interrupt>
  30:	0c 94 34 00 	jmp	0x68	; 0x68 <__bad_interrupt>
  34:	0c 94 34 00 	jmp	0x68	; 0x68 <__bad_interrupt>
  38:	0c 94 34 00 	jmp	0x68	; 0x68 <__bad_interrupt>
  3c:	0c 94 34 00 	jmp	0x68	; 0x68 <__bad_interrupt>
  40:	0c 94 34 00 	jmp	0x68	; 0x68 <__bad_interrupt>
  44:	0c 94 34 00 	jmp	0x68	; 0x68 <__bad_interrupt>
  48:	0c 94 34 00 	jmp	0x68	; 0x68 <__bad_interrupt>
  4c:	0c 94 34 00 	jmp	0x68	; 0x68 <__bad_interrupt>
  50:	0c 94 34 00 	jmp	0x68	; 0x68 <__bad_interrupt>

00000054 <__ctors_end>:
  54:	11 24       	eor	r1, r1
  56:	1f be       	out	0x3f, r1	; 63
  58:	cf e5       	ldi	r28, 0x5F	; 95
  5a:	d8 e0       	ldi	r29, 0x08	; 8
  5c:	de bf       	out	0x3e, r29	; 62
  5e:	cd bf       	out	0x3d, r28	; 61
  60:	0e 94 36 00 	call	0x6c	; 0x6c <main>
  64:	0c 94 4a 00 	jmp	0x94	; 0x94 <_exit>

00000068 <__bad_interrupt>:
  68:	0c 94 00 00 	jmp	0	; 0x0 <__vectors>

0000006c <main>:
#define LED_ON PORTA |=(1<<PA0)
#define LED_OFF PORTA &= ~(1<<PA0)

int main (void)
{
	INIT_LED_PA0;
  6c:	d0 9a       	sbi	0x1a, 0	; 26
    milliseconds can be achieved.
 */
void
_delay_loop_2(uint16_t __count)
{
	__asm__ volatile (
  6e:	28 ec       	ldi	r18, 0xC8	; 200
  70:	30 e0       	ldi	r19, 0x00	; 0
	while(1)
	{
		LED_ON;
  72:	d8 9a       	sbi	0x1b, 0	; 27
  74:	88 eb       	ldi	r24, 0xB8	; 184
  76:	9b e0       	ldi	r25, 0x0B	; 11
  78:	f9 01       	movw	r30, r18
  7a:	31 97       	sbiw	r30, 0x01	; 1
  7c:	f1 f7       	brne	.-4      	; 0x7a <main+0xe>
		__ticks = (uint16_t) (__ms * 10.0);
		while(__ticks)
		{
			// wait 1/10 ms
			_delay_loop_2(((F_CPU) / 4e3) / 10);
			__ticks --;
  7e:	01 97       	sbiw	r24, 0x01	; 1
		__ticks = 1;
	else if (__tmp > 65535)
	{
		//	__ticks = requested delay in 1/10 ms
		__ticks = (uint16_t) (__ms * 10.0);
		while(__ticks)
  80:	d9 f7       	brne	.-10     	; 0x78 <main+0xc>
		_delay_ms(300);
		LED_OFF;
  82:	d8 98       	cbi	0x1b, 0	; 27
  84:	88 eb       	ldi	r24, 0xB8	; 184
  86:	9b e0       	ldi	r25, 0x0B	; 11
  88:	f9 01       	movw	r30, r18
  8a:	31 97       	sbiw	r30, 0x01	; 1
  8c:	f1 f7       	brne	.-4      	; 0x8a <main+0x1e>
		{
			// wait 1/10 ms
			_delay_loop_2(((F_CPU) / 4e3) / 10);
			__ticks --;
  8e:	01 97       	sbiw	r24, 0x01	; 1
		__ticks = 1;
	else if (__tmp > 65535)
	{
		//	__ticks = requested delay in 1/10 ms
		__ticks = (uint16_t) (__ms * 10.0);
		while(__ticks)
  90:	d9 f7       	brne	.-10     	; 0x88 <main+0x1c>
  92:	ef cf       	rjmp	.-34     	; 0x72 <main+0x6>

00000094 <_exit>:
  94:	f8 94       	cli

00000096 <__stop_program>:
  96:	ff cf       	rjmp	.-2      	; 0x96 <__stop_program>
