:100000000C942A000C943F000C943F000C943F0089
:100010000C943F000C943F000C943F000C943F0064
:100020000C943F000C943F000C943F000C943F0054
:100030000C943F000C943F000C943F000C943F0044
:100040000C943F000C943F000C943F000C943F0034
:100050000C943F0011241FBECFE5D8E0DEBFCDBF1A
:1000600010E0A0E6B0E0E2E7F1E002C005900D92FA
:10007000A836B107D9F70E9471000C94B7000C9410
:100080000000DF93CF9300D000D0CDB7DEB7198248
:100090001A821B821C829C01442737FD4095542FF5
:1000A00060ED77E00EC0CB010197F1F789819A816D
:1000B000AB81BC810196A11DB11D89839A83AB835D
:1000C000BC8389819A81AB81BC8182179307A40785
:1000D000B50748F30F900F900F900F90CF91DF91DD
:1000E0000895DF93CF93CDB7DEB72C970FB6F89472
:1000F000DEBF0FBECDBFDE011596E0E6F0E088E082
:1001000001900D928150E1F78FEF82BB81BB20E01F
:1001100030E0BE016B5F7F4F40ED57E0FB01E20F27
:10012000F31F808182BB19821A821B821C820EC03F
:10013000CA010197F1F789819A81AB81BC8101964F
:10014000A11DB11D89839A83AB83BC8389819A8168
:10015000AB81BC8184369105A105B10548F32F5FC1
:100160003F4F28303105D4F220E030E0D7CFF8946B
:02017000FFCFBF
:080172007FBFFDF7EFDFFDFB8D
:00000001FF
