:100000000C942A000C9434000C9434000C943400AA
:100010000C9434000C9434000C9434000C94340090
:100020000C9434000C9434000C9434000C94340080
:100030000C9434000C9434000C9434000C94340070
:100040000C9434000C9434000C9434000C94340060
:100050000C94340011241FBECFE5D8E0DEBFCDBF25
:100060000E9477000C949D000C9400008FE78ABBDF
:100070001BBA08958430910561F1853091057CF4B7
:100080008130910501F1823091051CF4892BC9F072
:10009000089582309105C9F0039741F518C0873063
:1000A0009105E9F08830910534F48530910599F097
:1000B0000697E1F412C08830910599F00997B1F4E0
:1000C00013C08FE30FC086E00DC08BE50BC08FE43B
:1000D00009C086E607C08DE605C08DE703C087E04E
:1000E00001C08FE78BBB08958FE68BBB0895CF933C
:1000F000DF938F98979AA398AB9A8FE78ABB1BBA26
:1001000080E090E0EC01CE010E943A00879908C09F
:10011000879BFECF2196CA30D10511F4C9E0D0E00B
:100120009B99F1CF9B9BFECFCE010197C0E0D0E021
:0E0130002FEF8F3F920731F7E6CFF894FFCF05
:00000001FF
